{
  "_format": "hh-sol-artifact-1",
  "contractName": "BetNFT",
  "sourceName": "contracts/BetNFT.sol",
  "abi": [
    {
      "inputs": [],
      "stateMutability": "nonpayable",
      "type": "constructor"
    },
    {
      "anonymous": false,
      "inputs": [
        {
          "indexed": true,
          "internalType": "address",
          "name": "owner",
          "type": "address"
        },
        {
          "indexed": true,
          "internalType": "address",
          "name": "approved",
          "type": "address"
        },
        {
          "indexed": true,
          "internalType": "uint256",
          "name": "tokenId",
          "type": "uint256"
        }
      ],
      "name": "Approval",
      "type": "event"
    },
    {
      "anonymous": false,
      "inputs": [
        {
          "indexed": true,
          "internalType": "address",
          "name": "owner",
          "type": "address"
        },
        {
          "indexed": true,
          "internalType": "address",
          "name": "operator",
          "type": "address"
        },
        {
          "indexed": false,
          "internalType": "bool",
          "name": "approved",
          "type": "bool"
        }
      ],
      "name": "ApprovalForAll",
      "type": "event"
    },
    {
      "anonymous": false,
      "inputs": [
        {
          "indexed": false,
          "internalType": "uint256",
          "name": "_fromTokenId",
          "type": "uint256"
        },
        {
          "indexed": false,
          "internalType": "uint256",
          "name": "_toTokenId",
          "type": "uint256"
        }
      ],
      "name": "BatchMetadataUpdate",
      "type": "event"
    },
    {
      "anonymous": false,
      "inputs": [
        {
          "indexed": false,
          "internalType": "uint256",
          "name": "_tokenId",
          "type": "uint256"
        }
      ],
      "name": "MetadataUpdate",
      "type": "event"
    },
    {
      "anonymous": false,
      "inputs": [
        {
          "indexed": true,
          "internalType": "address",
          "name": "from",
          "type": "address"
        },
        {
          "indexed": true,
          "internalType": "address",
          "name": "to",
          "type": "address"
        },
        {
          "indexed": true,
          "internalType": "uint256",
          "name": "tokenId",
          "type": "uint256"
        }
      ],
      "name": "Transfer",
      "type": "event"
    },
    {
      "inputs": [
        {
          "internalType": "address",
          "name": "to",
          "type": "address"
        },
        {
          "internalType": "uint256",
          "name": "tokenId",
          "type": "uint256"
        }
      ],
      "name": "approve",
      "outputs": [],
      "stateMutability": "nonpayable",
      "type": "function"
    },
    {
      "inputs": [
        {
          "internalType": "address",
          "name": "owner",
          "type": "address"
        }
      ],
      "name": "balanceOf",
      "outputs": [
        {
          "internalType": "uint256",
          "name": "",
          "type": "uint256"
        }
      ],
      "stateMutability": "view",
      "type": "function"
    },
    {
      "inputs": [
        {
          "internalType": "address",
          "name": "",
          "type": "address"
        }
      ],
      "name": "bets",
      "outputs": [
        {
          "internalType": "address",
          "name": "opponent",
          "type": "address"
        },
        {
          "internalType": "uint256",
          "name": "amount",
          "type": "uint256"
        },
        {
          "internalType": "uint256",
          "name": "tokenId",
          "type": "uint256"
        },
        {
          "internalType": "enum BetNFT.betState",
          "name": "state",
          "type": "uint8"
        }
      ],
      "stateMutability": "view",
      "type": "function"
    },
    {
      "inputs": [
        {
          "internalType": "uint256",
          "name": "tokenId",
          "type": "uint256"
        }
      ],
      "name": "getApproved",
      "outputs": [
        {
          "internalType": "address",
          "name": "",
          "type": "address"
        }
      ],
      "stateMutability": "view",
      "type": "function"
    },
    {
      "inputs": [],
      "name": "getBalance",
      "outputs": [
        {
          "internalType": "uint256",
          "name": "",
          "type": "uint256"
        }
      ],
      "stateMutability": "view",
      "type": "function"
    },
    {
      "inputs": [
        {
          "internalType": "uint256",
          "name": "_betEth",
          "type": "uint256"
        }
      ],
      "name": "getEthAccuracy",
      "outputs": [
        {
          "internalType": "uint256",
          "name": "",
          "type": "uint256"
        }
      ],
      "stateMutability": "view",
      "type": "function"
    },
    {
      "inputs": [],
      "name": "getEthUsd",
      "outputs": [
        {
          "internalType": "uint256",
          "name": "",
          "type": "uint256"
        }
      ],
      "stateMutability": "view",
      "type": "function"
    },
    {
      "inputs": [
        {
          "internalType": "address",
          "name": "owner",
          "type": "address"
        },
        {
          "internalType": "address",
          "name": "operator",
          "type": "address"
        }
      ],
      "name": "isApprovedForAll",
      "outputs": [
        {
          "internalType": "bool",
          "name": "",
          "type": "bool"
        }
      ],
      "stateMutability": "view",
      "type": "function"
    },
    {
      "inputs": [
        {
          "internalType": "string",
          "name": "tokenURI",
          "type": "string"
        }
      ],
      "name": "mintNFT",
      "outputs": [
        {
          "internalType": "uint256",
          "name": "",
          "type": "uint256"
        }
      ],
      "stateMutability": "nonpayable",
      "type": "function"
    },
    {
      "inputs": [],
      "name": "name",
      "outputs": [
        {
          "internalType": "string",
          "name": "",
          "type": "string"
        }
      ],
      "stateMutability": "view",
      "type": "function"
    },
    {
      "inputs": [
        {
          "internalType": "uint256",
          "name": "tokenId",
          "type": "uint256"
        }
      ],
      "name": "ownerOf",
      "outputs": [
        {
          "internalType": "address",
          "name": "",
          "type": "address"
        }
      ],
      "stateMutability": "view",
      "type": "function"
    },
    {
      "inputs": [
        {
          "internalType": "uint256",
          "name": "tokenId",
          "type": "uint256"
        },
        {
          "internalType": "address",
          "name": "opponent",
          "type": "address"
        },
        {
          "internalType": "uint256",
          "name": "amount",
          "type": "uint256"
        }
      ],
      "name": "placeBet",
      "outputs": [],
      "stateMutability": "nonpayable",
      "type": "function"
    },
    {
      "inputs": [
        {
          "internalType": "address",
          "name": "from",
          "type": "address"
        },
        {
          "internalType": "address",
          "name": "to",
          "type": "address"
        },
        {
          "internalType": "uint256",
          "name": "tokenId",
          "type": "uint256"
        }
      ],
      "name": "safeTransferFrom",
      "outputs": [],
      "stateMutability": "nonpayable",
      "type": "function"
    },
    {
      "inputs": [
        {
          "internalType": "address",
          "name": "from",
          "type": "address"
        },
        {
          "internalType": "address",
          "name": "to",
          "type": "address"
        },
        {
          "internalType": "uint256",
          "name": "tokenId",
          "type": "uint256"
        },
        {
          "internalType": "bytes",
          "name": "data",
          "type": "bytes"
        }
      ],
      "name": "safeTransferFrom",
      "outputs": [],
      "stateMutability": "nonpayable",
      "type": "function"
    },
    {
      "inputs": [
        {
          "internalType": "address",
          "name": "operator",
          "type": "address"
        },
        {
          "internalType": "bool",
          "name": "approved",
          "type": "bool"
        }
      ],
      "name": "setApprovalForAll",
      "outputs": [],
      "stateMutability": "nonpayable",
      "type": "function"
    },
    {
      "inputs": [],
      "name": "settleBet",
      "outputs": [],
      "stateMutability": "nonpayable",
      "type": "function"
    },
    {
      "inputs": [
        {
          "internalType": "bytes4",
          "name": "interfaceId",
          "type": "bytes4"
        }
      ],
      "name": "supportsInterface",
      "outputs": [
        {
          "internalType": "bool",
          "name": "",
          "type": "bool"
        }
      ],
      "stateMutability": "view",
      "type": "function"
    },
    {
      "inputs": [],
      "name": "symbol",
      "outputs": [
        {
          "internalType": "string",
          "name": "",
          "type": "string"
        }
      ],
      "stateMutability": "view",
      "type": "function"
    },
    {
      "inputs": [
        {
          "internalType": "uint256",
          "name": "tokenId",
          "type": "uint256"
        }
      ],
      "name": "tokenURI",
      "outputs": [
        {
          "internalType": "string",
          "name": "",
          "type": "string"
        }
      ],
      "stateMutability": "view",
      "type": "function"
    },
    {
      "inputs": [
        {
          "internalType": "address",
          "name": "from",
          "type": "address"
        },
        {
          "internalType": "address",
          "name": "to",
          "type": "address"
        },
        {
          "internalType": "uint256",
          "name": "tokenId",
          "type": "uint256"
        }
      ],
      "name": "transferFrom",
      "outputs": [],
      "stateMutability": "nonpayable",
      "type": "function"
    },
    {
      "inputs": [
        {
          "internalType": "address",
          "name": "to",
          "type": "address"
        },
        {
          "internalType": "uint256",
          "name": "tokenId",
          "type": "uint256"
        }
      ],
      "name": "transferNFT",
      "outputs": [],
      "stateMutability": "nonpayable",
      "type": "function"
    },
    {
      "inputs": [],
      "name": "winner",
      "outputs": [
        {
          "internalType": "address",
          "name": "",
          "type": "address"
        }
      ],
      "stateMutability": "view",
      "type": "function"
    },
    {
      "stateMutability": "payable",
      "type": "receive"
    }
  ],
  "bytecode": "0x60806040523480156200001157600080fd5b506040518060400160405280600c81526020017f534b4b525950544f204e465400000000000000000000000000000000000000008152506040518060400160405280600b81526020017f534b4b525950544f4e465400000000000000000000000000000000000000000081525081600090816200008f9190620003ce565b508060019081620000a19190620003ce565b50505073694aa1769357215de4fac081bf1f309adc325306600860006101000a81548173ffffffffffffffffffffffffffffffffffffffff021916908373ffffffffffffffffffffffffffffffffffffffff160217905550731b44f3514812d835eb1bdb0acb33d3fa3351ee43600960006101000a81548173ffffffffffffffffffffffffffffffffffffffff021916908373ffffffffffffffffffffffffffffffffffffffff160217905550620004b5565b600081519050919050565b7f4e487b7100000000000000000000000000000000000000000000000000000000600052604160045260246000fd5b7f4e487b7100000000000000000000000000000000000000000000000000000000600052602260045260246000fd5b60006002820490506001821680620001d657607f821691505b602082108103620001ec57620001eb6200018e565b5b50919050565b60008190508160005260206000209050919050565b60006020601f8301049050919050565b600082821b905092915050565b600060088302620002567fffffffffffffffffffffffffffffffffffffffffffffffffffffffffffffffff8262000217565b62000262868362000217565b95508019841693508086168417925050509392505050565b6000819050919050565b6000819050919050565b6000620002af620002a9620002a3846200027a565b62000284565b6200027a565b9050919050565b6000819050919050565b620002cb836200028e565b620002e3620002da82620002b6565b84845462000224565b825550505050565b600090565b620002fa620002eb565b62000307818484620002c0565b505050565b5b818110156200032f5762000323600082620002f0565b6001810190506200030d565b5050565b601f8211156200037e576200034881620001f2565b620003538462000207565b8101602085101562000363578190505b6200037b620003728562000207565b8301826200030c565b50505b505050565b600082821c905092915050565b6000620003a36000198460080262000383565b1980831691505092915050565b6000620003be838362000390565b9150826002028217905092915050565b620003d98262000154565b67ffffffffffffffff811115620003f557620003f46200015f565b5b620004018254620001bd565b6200040e82828562000333565b600060209050601f83116001811462000446576000841562000431578287015190505b6200043d8582620003b0565b865550620004ad565b601f1984166200045686620001f2565b60005b82811015620004805784890151825560018201915060208501945060208101905062000459565b86831015620004a057848901516200049c601f89168262000390565b8355505b6001600288020188555050505b505050505050565b613d0780620004c56000396000f3fe6080604052600436106101395760003560e01c806389a78f1a116100ab578063b88d4fde1161006f578063b88d4fde14610444578063bb27e0ce1461046d578063c87b56dd14610498578063dfbf53ae146104d5578063e985e9c514610500578063fb37e8831461053d57610140565b806389a78f1a146103705780638e4bf820146103b057806394ab67fe146103c757806395d89b41146103f0578063a22cb4651461041b57610140565b806323b872dd116100fd57806323b872dd1461023e57806342842e0e1461026757806351317b4e146102905780636352211e146102b95780636affd747146102f657806370a082311461033357610140565b806301ffc9a71461014557806306fdde0314610182578063081812fc146101ad578063095ea7b3146101ea57806312065fe01461021357610140565b3661014057005b600080fd5b34801561015157600080fd5b5061016c60048036038101906101679190612700565b61057a565b6040516101799190612748565b60405180910390f35b34801561018e57600080fd5b506101976105db565b6040516101a491906127f3565b60405180910390f35b3480156101b957600080fd5b506101d460048036038101906101cf919061284b565b61066d565b6040516101e191906128b9565b60405180910390f35b3480156101f657600080fd5b50610211600480360381019061020c9190612900565b6106b3565b005b34801561021f57600080fd5b506102286107ca565b604051610235919061294f565b60405180910390f35b34801561024a57600080fd5b506102656004803603810190610260919061296a565b6107d2565b005b34801561027357600080fd5b5061028e6004803603810190610289919061296a565b610832565b005b34801561029c57600080fd5b506102b760048036038101906102b291906129bd565b610852565b005b3480156102c557600080fd5b506102e060048036038101906102db919061284b565b610ac0565b6040516102ed91906128b9565b60405180910390f35b34801561030257600080fd5b5061031d6004803603810190610318919061284b565b610b46565b60405161032a919061294f565b60405180910390f35b34801561033f57600080fd5b5061035a60048036038101906103559190612a10565b610b98565b604051610367919061294f565b60405180910390f35b34801561037c57600080fd5b5061039760048036038101906103929190612a10565b610c4f565b6040516103a79493929190612ab4565b60405180910390f35b3480156103bc57600080fd5b506103c5610cac565b005b3480156103d357600080fd5b506103ee60048036038101906103e99190612900565b611312565b005b3480156103fc57600080fd5b5061040561136a565b60405161041291906127f3565b60405180910390f35b34801561042757600080fd5b50610442600480360381019061043d9190612b25565b6113fc565b005b34801561045057600080fd5b5061046b60048036038101906104669190612c9a565b611412565b005b34801561047957600080fd5b50610482611474565b60405161048f919061294f565b60405180910390f35b3480156104a457600080fd5b506104bf60048036038101906104ba919061284b565b61152a565b6040516104cc91906127f3565b60405180910390f35b3480156104e157600080fd5b506104ea61163c565b6040516104f791906128b9565b60405180910390f35b34801561050c57600080fd5b5061052760048036038101906105229190612d1d565b611662565b6040516105349190612748565b60405180910390f35b34801561054957600080fd5b50610564600480360381019061055f9190612dfe565b6116f6565b604051610571919061294f565b60405180910390f35b6000634906490660e01b7bffffffffffffffffffffffffffffffffffffffffffffffffffffffff1916827bffffffffffffffffffffffffffffffffffffffffffffffffffffffff191614806105d457506105d38261172d565b5b9050919050565b6060600080546105ea90612e76565b80601f016020809104026020016040519081016040528092919081815260200182805461061690612e76565b80156106635780601f1061063857610100808354040283529160200191610663565b820191906000526020600020905b81548152906001019060200180831161064657829003601f168201915b5050505050905090565b60006106788261180f565b6004600083815260200190815260200160002060009054906101000a900473ffffffffffffffffffffffffffffffffffffffff169050919050565b60006106be82610ac0565b90508073ffffffffffffffffffffffffffffffffffffffff168373ffffffffffffffffffffffffffffffffffffffff160361072e576040517f08c379a000000000000000000000000000000000000000000000000000000000815260040161072590612f19565b60405180910390fd5b8073ffffffffffffffffffffffffffffffffffffffff1661074d61185a565b73ffffffffffffffffffffffffffffffffffffffff16148061077c575061077b8161077661185a565b611662565b5b6107bb576040517f08c379a00000000000000000000000000000000000000000000000000000000081526004016107b290612fab565b60405180910390fd5b6107c58383611862565b505050565b600047905090565b6107e36107dd61185a565b8261191b565b610822576040517f08c379a00000000000000000000000000000000000000000000000000000000081526004016108199061303d565b60405180910390fd5b61082d8383836119b0565b505050565b61084d83838360405180602001604052806000815250611412565b505050565b3373ffffffffffffffffffffffffffffffffffffffff1661087284610ac0565b73ffffffffffffffffffffffffffffffffffffffff16146108c8576040517f08c379a00000000000000000000000000000000000000000000000000000000081526004016108bf906130a9565b60405180910390fd5b600073ffffffffffffffffffffffffffffffffffffffff16600a60003373ffffffffffffffffffffffffffffffffffffffff1673ffffffffffffffffffffffffffffffffffffffff16815260200190815260200160002060000160009054906101000a900473ffffffffffffffffffffffffffffffffffffffff1673ffffffffffffffffffffffffffffffffffffffff1614610999576040517f08c379a000000000000000000000000000000000000000000000000000000000815260040161099090613115565b60405180910390fd5b60405180608001604052808373ffffffffffffffffffffffffffffffffffffffff168152602001828152602001848152602001600060028111156109e0576109df612a3d565b5b815250600a60003373ffffffffffffffffffffffffffffffffffffffff1673ffffffffffffffffffffffffffffffffffffffff16815260200190815260200160002060008201518160000160006101000a81548173ffffffffffffffffffffffffffffffffffffffff021916908373ffffffffffffffffffffffffffffffffffffffff160217905550602082015181600101556040820151816002015560608201518160030160006101000a81548160ff02191690836002811115610aa857610aa7612a3d565b5b0217905550905050610abb3330856119b0565b505050565b600080610acc83611ca9565b9050600073ffffffffffffffffffffffffffffffffffffffff168173ffffffffffffffffffffffffffffffffffffffff1603610b3d576040517f08c379a0000000000000000000000000000000000000000000000000000000008152600401610b3490613181565b60405180910390fd5b80915050919050565b600080610b51611474565b90506000620186a084610b6491906131d0565b9050808210610b82578082610b799190613212565b92505050610b93565b8181610b8e9190613212565b925050505b919050565b60008073ffffffffffffffffffffffffffffffffffffffff168273ffffffffffffffffffffffffffffffffffffffff1603610c08576040517f08c379a0000000000000000000000000000000000000000000000000000000008152600401610bff906132b8565b60405180910390fd5b600360008373ffffffffffffffffffffffffffffffffffffffff1673ffffffffffffffffffffffffffffffffffffffff168152602001908152602001600020549050919050565b600a6020528060005260406000206000915090508060000160009054906101000a900473ffffffffffffffffffffffffffffffffffffffff16908060010154908060020154908060030160009054906101000a900460ff16905084565b600073ffffffffffffffffffffffffffffffffffffffff16600a60003373ffffffffffffffffffffffffffffffffffffffff1673ffffffffffffffffffffffffffffffffffffffff16815260200190815260200160002060000160009054906101000a900473ffffffffffffffffffffffffffffffffffffffff1673ffffffffffffffffffffffffffffffffffffffff1603610d7d576040517f08c379a0000000000000000000000000000000000000000000000000000000008152600401610d7490613324565b60405180910390fd5b6000600a60003373ffffffffffffffffffffffffffffffffffffffff1673ffffffffffffffffffffffffffffffffffffffff16815260200190815260200160002060000160009054906101000a900473ffffffffffffffffffffffffffffffffffffffff1690506001600a60008373ffffffffffffffffffffffffffffffffffffffff1673ffffffffffffffffffffffffffffffffffffffff168152602001908152602001600020600201541015610e6a576040517f08c379a0000000000000000000000000000000000000000000000000000000008152600401610e6190613390565b60405180910390fd5b6000600a60003373ffffffffffffffffffffffffffffffffffffffff1673ffffffffffffffffffffffffffffffffffffffff1681526020019081526020016000206001015490506000600a60008473ffffffffffffffffffffffffffffffffffffffff1673ffffffffffffffffffffffffffffffffffffffff1681526020019081526020016000206001015490506000600a60003373ffffffffffffffffffffffffffffffffffffffff1673ffffffffffffffffffffffffffffffffffffffff1681526020019081526020016000206002015490506000600a60008673ffffffffffffffffffffffffffffffffffffffff1673ffffffffffffffffffffffffffffffffffffffff1681526020019081526020016000206002015490506000610f9185610b46565b90506000610f9e85610b46565b9050808210156110c45760405180608001604052808873ffffffffffffffffffffffffffffffffffffffff16815260200187815260200185815260200160016002811115610fef57610fee612a3d565b5b815250600a60003373ffffffffffffffffffffffffffffffffffffffff1673ffffffffffffffffffffffffffffffffffffffff16815260200190815260200160002060008201518160000160006101000a81548173ffffffffffffffffffffffffffffffffffffffff021916908373ffffffffffffffffffffffffffffffffffffffff160217905550602082015181600101556040820151816002015560608201518160030160006101000a81548160ff021916908360028111156110b7576110b6612a3d565b5b02179055509050506111db565b60405180608001604052808873ffffffffffffffffffffffffffffffffffffffff16815260200187815260200185815260200160028081111561110a57611109612a3d565b5b815250600a60003373ffffffffffffffffffffffffffffffffffffffff1673ffffffffffffffffffffffffffffffffffffffff16815260200190815260200160002060008201518160000160006101000a81548173ffffffffffffffffffffffffffffffffffffffff021916908373ffffffffffffffffffffffffffffffffffffffff160217905550602082015181600101556040820151816002015560608201518160030160006101000a81548160ff021916908360028111156111d2576111d1612a3d565b5b02179055509050505b6002808111156111ee576111ed612a3d565b5b600a60003373ffffffffffffffffffffffffffffffffffffffff1673ffffffffffffffffffffffffffffffffffffffff16815260200190815260200160002060030160009054906101000a900460ff1660028111156112505761124f612a3d565b5b036112b1576112603088866119b0565b61126b3088856119b0565b86600b60006101000a81548173ffffffffffffffffffffffffffffffffffffffff021916908373ffffffffffffffffffffffffffffffffffffffff160217905550611309565b6112bc3033866119b0565b6112c73033856119b0565b33600b60006101000a81548173ffffffffffffffffffffffffffffffffffffffff021916908373ffffffffffffffffffffffffffffffffffffffff1602179055505b50505050505050565b61131c338261191b565b61135b576040517f08c379a0000000000000000000000000000000000000000000000000000000008152600401611352906133fc565b60405180910390fd5b6113663383836119b0565b5050565b60606001805461137990612e76565b80601f01602080910402602001604051908101604052809291908181526020018280546113a590612e76565b80156113f25780601f106113c7576101008083540402835291602001916113f2565b820191906000526020600020905b8154815290600101906020018083116113d557829003601f168201915b5050505050905090565b61140e61140761185a565b8383611ce6565b5050565b61142361141d61185a565b8361191b565b611462576040517f08c379a00000000000000000000000000000000000000000000000000000000081526004016114599061303d565b60405180910390fd5b61146e84848484611e52565b50505050565b600080600860009054906101000a900473ffffffffffffffffffffffffffffffffffffffff1673ffffffffffffffffffffffffffffffffffffffff1663feaf968c6040518163ffffffff1660e01b815260040160a060405180830381865afa1580156114e4573d6000803e3d6000fd5b505050506040513d601f19601f8201168201806040525081019061150891906134a9565b50505091505060006305f5e100826115209190613553565b9050809250505090565b60606115358261180f565b600060066000848152602001908152602001600020805461155590612e76565b80601f016020809104026020016040519081016040528092919081815260200182805461158190612e76565b80156115ce5780601f106115a3576101008083540402835291602001916115ce565b820191906000526020600020905b8154815290600101906020018083116115b157829003601f168201915b5050505050905060006115df611eae565b905060008151036115f4578192505050611637565b6000825111156116295780826040516020016116119291906135c0565b60405160208183030381529060405292505050611637565b61163284611ec5565b925050505b919050565b600b60009054906101000a900473ffffffffffffffffffffffffffffffffffffffff1681565b6000600560008473ffffffffffffffffffffffffffffffffffffffff1673ffffffffffffffffffffffffffffffffffffffff16815260200190815260200160002060008373ffffffffffffffffffffffffffffffffffffffff1673ffffffffffffffffffffffffffffffffffffffff16815260200190815260200160002060009054906101000a900460ff16905092915050565b60006117026007611f2d565b600061170e6007611f43565b905061171a3382611f51565b611724818461216e565b80915050919050565b60007f80ac58cd000000000000000000000000000000000000000000000000000000007bffffffffffffffffffffffffffffffffffffffffffffffffffffffff1916827bffffffffffffffffffffffffffffffffffffffffffffffffffffffff191614806117f857507f5b5e139f000000000000000000000000000000000000000000000000000000007bffffffffffffffffffffffffffffffffffffffffffffffffffffffff1916827bffffffffffffffffffffffffffffffffffffffffffffffffffffffff1916145b80611808575061180782612212565b5b9050919050565b6118188161227c565b611857576040517f08c379a000000000000000000000000000000000000000000000000000000000815260040161184e90613181565b60405180910390fd5b50565b600033905090565b816004600083815260200190815260200160002060006101000a81548173ffffffffffffffffffffffffffffffffffffffff021916908373ffffffffffffffffffffffffffffffffffffffff160217905550808273ffffffffffffffffffffffffffffffffffffffff166118d583610ac0565b73ffffffffffffffffffffffffffffffffffffffff167f8c5be1e5ebec7d5bd14f71427d1e84f3dd0314c0f7b2291e5b200ac8c7c3b92560405160405180910390a45050565b60008061192783610ac0565b90508073ffffffffffffffffffffffffffffffffffffffff168473ffffffffffffffffffffffffffffffffffffffff16148061196957506119688185611662565b5b806119a757508373ffffffffffffffffffffffffffffffffffffffff1661198f8461066d565b73ffffffffffffffffffffffffffffffffffffffff16145b91505092915050565b8273ffffffffffffffffffffffffffffffffffffffff166119d082610ac0565b73ffffffffffffffffffffffffffffffffffffffff1614611a26576040517f08c379a0000000000000000000000000000000000000000000000000000000008152600401611a1d90613656565b60405180910390fd5b600073ffffffffffffffffffffffffffffffffffffffff168273ffffffffffffffffffffffffffffffffffffffff1603611a95576040517f08c379a0000000000000000000000000000000000000000000000000000000008152600401611a8c906136e8565b60405180910390fd5b611aa283838360016122bd565b8273ffffffffffffffffffffffffffffffffffffffff16611ac282610ac0565b73ffffffffffffffffffffffffffffffffffffffff1614611b18576040517f08c379a0000000000000000000000000000000000000000000000000000000008152600401611b0f90613656565b60405180910390fd5b6004600082815260200190815260200160002060006101000a81549073ffffffffffffffffffffffffffffffffffffffff02191690556001600360008573ffffffffffffffffffffffffffffffffffffffff1673ffffffffffffffffffffffffffffffffffffffff168152602001908152602001600020600082825403925050819055506001600360008473ffffffffffffffffffffffffffffffffffffffff1673ffffffffffffffffffffffffffffffffffffffff16815260200190815260200160002060008282540192505081905550816002600083815260200190815260200160002060006101000a81548173ffffffffffffffffffffffffffffffffffffffff021916908373ffffffffffffffffffffffffffffffffffffffff160217905550808273ffffffffffffffffffffffffffffffffffffffff168473ffffffffffffffffffffffffffffffffffffffff167fddf252ad1be2c89b69c2b068fc378daa952ba7f163c4a11628f55a4df523b3ef60405160405180910390a4611ca483838360016122c3565b505050565b60006002600083815260200190815260200160002060009054906101000a900473ffffffffffffffffffffffffffffffffffffffff169050919050565b8173ffffffffffffffffffffffffffffffffffffffff168373ffffffffffffffffffffffffffffffffffffffff1603611d54576040517f08c379a0000000000000000000000000000000000000000000000000000000008152600401611d4b90613754565b60405180910390fd5b80600560008573ffffffffffffffffffffffffffffffffffffffff1673ffffffffffffffffffffffffffffffffffffffff16815260200190815260200160002060008473ffffffffffffffffffffffffffffffffffffffff1673ffffffffffffffffffffffffffffffffffffffff16815260200190815260200160002060006101000a81548160ff0219169083151502179055508173ffffffffffffffffffffffffffffffffffffffff168373ffffffffffffffffffffffffffffffffffffffff167f17307eab39ab6107e8899845ad3d59bd9653f200f220920489ca2b5937696c3183604051611e459190612748565b60405180910390a3505050565b611e5d8484846119b0565b611e69848484846122c9565b611ea8576040517f08c379a0000000000000000000000000000000000000000000000000000000008152600401611e9f906137e6565b60405180910390fd5b50505050565b606060405180602001604052806000815250905090565b6060611ed08261180f565b6000611eda611eae565b90506000815111611efa5760405180602001604052806000815250611f25565b80611f0484612450565b604051602001611f159291906135c0565b6040516020818303038152906040525b915050919050565b6001816000016000828254019250508190555050565b600081600001549050919050565b600073ffffffffffffffffffffffffffffffffffffffff168273ffffffffffffffffffffffffffffffffffffffff1603611fc0576040517f08c379a0000000000000000000000000000000000000000000000000000000008152600401611fb790613852565b60405180910390fd5b611fc98161227c565b15612009576040517f08c379a0000000000000000000000000000000000000000000000000000000008152600401612000906138be565b60405180910390fd5b6120176000838360016122bd565b6120208161227c565b15612060576040517f08c379a0000000000000000000000000000000000000000000000000000000008152600401612057906138be565b60405180910390fd5b6001600360008473ffffffffffffffffffffffffffffffffffffffff1673ffffffffffffffffffffffffffffffffffffffff16815260200190815260200160002060008282540192505081905550816002600083815260200190815260200160002060006101000a81548173ffffffffffffffffffffffffffffffffffffffff021916908373ffffffffffffffffffffffffffffffffffffffff160217905550808273ffffffffffffffffffffffffffffffffffffffff16600073ffffffffffffffffffffffffffffffffffffffff167fddf252ad1be2c89b69c2b068fc378daa952ba7f163c4a11628f55a4df523b3ef60405160405180910390a461216a6000838360016122c3565b5050565b6121778261227c565b6121b6576040517f08c379a00000000000000000000000000000000000000000000000000000000081526004016121ad90613950565b60405180910390fd5b806006600084815260200190815260200160002090816121d69190613b1c565b507ff8e1a15aba9398e019f0b49df1a4fde98ee17ae345cb5f6b5e2c27f5033e8ce782604051612206919061294f565b60405180910390a15050565b60007f01ffc9a7000000000000000000000000000000000000000000000000000000007bffffffffffffffffffffffffffffffffffffffffffffffffffffffff1916827bffffffffffffffffffffffffffffffffffffffffffffffffffffffff1916149050919050565b60008073ffffffffffffffffffffffffffffffffffffffff1661229e83611ca9565b73ffffffffffffffffffffffffffffffffffffffff1614159050919050565b50505050565b50505050565b60006122ea8473ffffffffffffffffffffffffffffffffffffffff1661251e565b15612443578373ffffffffffffffffffffffffffffffffffffffff1663150b7a0261231361185a565b8786866040518563ffffffff1660e01b81526004016123359493929190613c43565b6020604051808303816000875af192505050801561237157506040513d601f19601f8201168201806040525081019061236e9190613ca4565b60015b6123f3573d80600081146123a1576040519150601f19603f3d011682016040523d82523d6000602084013e6123a6565b606091505b5060008151036123eb576040517f08c379a00000000000000000000000000000000000000000000000000000000081526004016123e2906137e6565b60405180910390fd5b805181602001fd5b63150b7a0260e01b7bffffffffffffffffffffffffffffffffffffffffffffffffffffffff1916817bffffffffffffffffffffffffffffffffffffffffffffffffffffffff191614915050612448565b600190505b949350505050565b60606000600161245f84612541565b01905060008167ffffffffffffffff81111561247e5761247d612b6f565b5b6040519080825280601f01601f1916602001820160405280156124b05781602001600182028036833780820191505090505b509050600082602001820190505b600115612513578080600190039150507f3031323334353637383961626364656600000000000000000000000000000000600a86061a8153600a858161250757612506613524565b5b049450600085036124be575b819350505050919050565b6000808273ffffffffffffffffffffffffffffffffffffffff163b119050919050565b600080600090507a184f03e93ff9f4daa797ed6e38ed64bf6a1f010000000000000000831061259f577a184f03e93ff9f4daa797ed6e38ed64bf6a1f010000000000000000838161259557612594613524565b5b0492506040810190505b6d04ee2d6d415b85acef810000000083106125dc576d04ee2d6d415b85acef810000000083816125d2576125d1613524565b5b0492506020810190505b662386f26fc10000831061260b57662386f26fc10000838161260157612600613524565b5b0492506010810190505b6305f5e1008310612634576305f5e100838161262a57612629613524565b5b0492506008810190505b612710831061265957612710838161264f5761264e613524565b5b0492506004810190505b6064831061267c576064838161267257612671613524565b5b0492506002810190505b600a831061268b576001810190505b80915050919050565b6000604051905090565b600080fd5b600080fd5b60007fffffffff0000000000000000000000000000000000000000000000000000000082169050919050565b6126dd816126a8565b81146126e857600080fd5b50565b6000813590506126fa816126d4565b92915050565b6000602082840312156127165761271561269e565b5b6000612724848285016126eb565b91505092915050565b60008115159050919050565b6127428161272d565b82525050565b600060208201905061275d6000830184612739565b92915050565b600081519050919050565b600082825260208201905092915050565b60005b8381101561279d578082015181840152602081019050612782565b60008484015250505050565b6000601f19601f8301169050919050565b60006127c582612763565b6127cf818561276e565b93506127df81856020860161277f565b6127e8816127a9565b840191505092915050565b6000602082019050818103600083015261280d81846127ba565b905092915050565b6000819050919050565b61282881612815565b811461283357600080fd5b50565b6000813590506128458161281f565b92915050565b6000602082840312156128615761286061269e565b5b600061286f84828501612836565b91505092915050565b600073ffffffffffffffffffffffffffffffffffffffff82169050919050565b60006128a382612878565b9050919050565b6128b381612898565b82525050565b60006020820190506128ce60008301846128aa565b92915050565b6128dd81612898565b81146128e857600080fd5b50565b6000813590506128fa816128d4565b92915050565b600080604083850312156129175761291661269e565b5b6000612925858286016128eb565b925050602061293685828601612836565b9150509250929050565b61294981612815565b82525050565b60006020820190506129646000830184612940565b92915050565b6000806000606084860312156129835761298261269e565b5b6000612991868287016128eb565b93505060206129a2868287016128eb565b92505060406129b386828701612836565b9150509250925092565b6000806000606084860312156129d6576129d561269e565b5b60006129e486828701612836565b93505060206129f5868287016128eb565b9250506040612a0686828701612836565b9150509250925092565b600060208284031215612a2657612a2561269e565b5b6000612a34848285016128eb565b91505092915050565b7f4e487b7100000000000000000000000000000000000000000000000000000000600052602160045260246000fd5b60038110612a7d57612a7c612a3d565b5b50565b6000819050612a8e82612a6c565b919050565b6000612a9e82612a80565b9050919050565b612aae81612a93565b82525050565b6000608082019050612ac960008301876128aa565b612ad66020830186612940565b612ae36040830185612940565b612af06060830184612aa5565b95945050505050565b612b028161272d565b8114612b0d57600080fd5b50565b600081359050612b1f81612af9565b92915050565b60008060408385031215612b3c57612b3b61269e565b5b6000612b4a858286016128eb565b9250506020612b5b85828601612b10565b9150509250929050565b600080fd5b600080fd5b7f4e487b7100000000000000000000000000000000000000000000000000000000600052604160045260246000fd5b612ba7826127a9565b810181811067ffffffffffffffff82111715612bc657612bc5612b6f565b5b80604052505050565b6000612bd9612694565b9050612be58282612b9e565b919050565b600067ffffffffffffffff821115612c0557612c04612b6f565b5b612c0e826127a9565b9050602081019050919050565b82818337600083830152505050565b6000612c3d612c3884612bea565b612bcf565b905082815260208101848484011115612c5957612c58612b6a565b5b612c64848285612c1b565b509392505050565b600082601f830112612c8157612c80612b65565b5b8135612c91848260208601612c2a565b91505092915050565b60008060008060808587031215612cb457612cb361269e565b5b6000612cc2878288016128eb565b9450506020612cd3878288016128eb565b9350506040612ce487828801612836565b925050606085013567ffffffffffffffff811115612d0557612d046126a3565b5b612d1187828801612c6c565b91505092959194509250565b60008060408385031215612d3457612d3361269e565b5b6000612d42858286016128eb565b9250506020612d53858286016128eb565b9150509250929050565b600067ffffffffffffffff821115612d7857612d77612b6f565b5b612d81826127a9565b9050602081019050919050565b6000612da1612d9c84612d5d565b612bcf565b905082815260208101848484011115612dbd57612dbc612b6a565b5b612dc8848285612c1b565b509392505050565b600082601f830112612de557612de4612b65565b5b8135612df5848260208601612d8e565b91505092915050565b600060208284031215612e1457612e1361269e565b5b600082013567ffffffffffffffff811115612e3257612e316126a3565b5b612e3e84828501612dd0565b91505092915050565b7f4e487b7100000000000000000000000000000000000000000000000000000000600052602260045260246000fd5b60006002820490506001821680612e8e57607f821691505b602082108103612ea157612ea0612e47565b5b50919050565b7f4552433732313a20617070726f76616c20746f2063757272656e74206f776e6560008201527f7200000000000000000000000000000000000000000000000000000000000000602082015250565b6000612f0360218361276e565b9150612f0e82612ea7565b604082019050919050565b60006020820190508181036000830152612f3281612ef6565b9050919050565b7f4552433732313a20617070726f76652063616c6c6572206973206e6f7420746f60008201527f6b656e206f776e6572206f7220617070726f76656420666f7220616c6c000000602082015250565b6000612f95603d8361276e565b9150612fa082612f39565b604082019050919050565b60006020820190508181036000830152612fc481612f88565b9050919050565b7f4552433732313a2063616c6c6572206973206e6f7420746f6b656e206f776e6560008201527f72206f7220617070726f76656400000000000000000000000000000000000000602082015250565b6000613027602d8361276e565b915061303282612fcb565b604082019050919050565b600060208201905081810360008301526130568161301a565b9050919050565b7f596f7520646f6e2774206f776e20746865204e46540000000000000000000000600082015250565b600061309360158361276e565b915061309e8261305d565b602082019050919050565b600060208201905081810360008301526130c281613086565b9050919050565b7f416c726561647920706c61636564206120626574000000000000000000000000600082015250565b60006130ff60148361276e565b915061310a826130c9565b602082019050919050565b6000602082019050818103600083015261312e816130f2565b9050919050565b7f4552433732313a20696e76616c696420746f6b656e2049440000000000000000600082015250565b600061316b60188361276e565b915061317682613135565b602082019050919050565b6000602082019050818103600083015261319a8161315e565b9050919050565b7f4e487b7100000000000000000000000000000000000000000000000000000000600052601160045260246000fd5b60006131db82612815565b91506131e683612815565b92508282026131f481612815565b9150828204841483151761320b5761320a6131a1565b5b5092915050565b600061321d82612815565b915061322883612815565b92508282039050818111156132405761323f6131a1565b5b92915050565b7f4552433732313a2061646472657373207a65726f206973206e6f74206120766160008201527f6c6964206f776e65720000000000000000000000000000000000000000000000602082015250565b60006132a260298361276e565b91506132ad82613246565b604082019050919050565b600060208201905081810360008301526132d181613295565b9050919050565b7f4e6f2062657420706c6163656d656e7400000000000000000000000000000000600082015250565b600061330e60108361276e565b9150613319826132d8565b602082019050919050565b6000602082019050818103600083015261333d81613301565b9050919050565b7f4f70706f6e656e7420686173206e6f7420706c61636564206120626574000000600082015250565b600061337a601d8361276e565b915061338582613344565b602082019050919050565b600060208201905081810360008301526133a98161336d565b9050919050565b7f4e6f7420617070726f766564206f72206f776e65720000000000000000000000600082015250565b60006133e660158361276e565b91506133f1826133b0565b602082019050919050565b60006020820190508181036000830152613415816133d9565b9050919050565b600069ffffffffffffffffffff82169050919050565b61343b8161341c565b811461344657600080fd5b50565b60008151905061345881613432565b92915050565b6000819050919050565b6134718161345e565b811461347c57600080fd5b50565b60008151905061348e81613468565b92915050565b6000815190506134a38161281f565b92915050565b600080600080600060a086880312156134c5576134c461269e565b5b60006134d388828901613449565b95505060206134e48882890161347f565b94505060406134f588828901613494565b935050606061350688828901613494565b925050608061351788828901613449565b9150509295509295909350565b7f4e487b7100000000000000000000000000000000000000000000000000000000600052601260045260246000fd5b600061355e82612815565b915061356983612815565b92508261357957613578613524565b5b828204905092915050565b600081905092915050565b600061359a82612763565b6135a48185613584565b93506135b481856020860161277f565b80840191505092915050565b60006135cc828561358f565b91506135d8828461358f565b91508190509392505050565b7f4552433732313a207472616e736665722066726f6d20696e636f72726563742060008201527f6f776e6572000000000000000000000000000000000000000000000000000000602082015250565b600061364060258361276e565b915061364b826135e4565b604082019050919050565b6000602082019050818103600083015261366f81613633565b9050919050565b7f4552433732313a207472616e7366657220746f20746865207a65726f2061646460008201527f7265737300000000000000000000000000000000000000000000000000000000602082015250565b60006136d260248361276e565b91506136dd82613676565b604082019050919050565b60006020820190508181036000830152613701816136c5565b9050919050565b7f4552433732313a20617070726f766520746f2063616c6c657200000000000000600082015250565b600061373e60198361276e565b915061374982613708565b602082019050919050565b6000602082019050818103600083015261376d81613731565b9050919050565b7f4552433732313a207472616e7366657220746f206e6f6e20455243373231526560008201527f63656976657220696d706c656d656e7465720000000000000000000000000000602082015250565b60006137d060328361276e565b91506137db82613774565b604082019050919050565b600060208201905081810360008301526137ff816137c3565b9050919050565b7f4552433732313a206d696e7420746f20746865207a65726f2061646472657373600082015250565b600061383c60208361276e565b915061384782613806565b602082019050919050565b6000602082019050818103600083015261386b8161382f565b9050919050565b7f4552433732313a20746f6b656e20616c7265616479206d696e74656400000000600082015250565b60006138a8601c8361276e565b91506138b382613872565b602082019050919050565b600060208201905081810360008301526138d78161389b565b9050919050565b7f45524337323155524953746f726167653a2055524920736574206f66206e6f6e60008201527f6578697374656e7420746f6b656e000000000000000000000000000000000000602082015250565b600061393a602e8361276e565b9150613945826138de565b604082019050919050565b600060208201905081810360008301526139698161392d565b9050919050565b60008190508160005260206000209050919050565b60006020601f8301049050919050565b600082821b905092915050565b6000600883026139d27fffffffffffffffffffffffffffffffffffffffffffffffffffffffffffffffff82613995565b6139dc8683613995565b95508019841693508086168417925050509392505050565b6000819050919050565b6000613a19613a14613a0f84612815565b6139f4565b612815565b9050919050565b6000819050919050565b613a33836139fe565b613a47613a3f82613a20565b8484546139a2565b825550505050565b600090565b613a5c613a4f565b613a67818484613a2a565b505050565b5b81811015613a8b57613a80600082613a54565b600181019050613a6d565b5050565b601f821115613ad057613aa181613970565b613aaa84613985565b81016020851015613ab9578190505b613acd613ac585613985565b830182613a6c565b50505b505050565b600082821c905092915050565b6000613af360001984600802613ad5565b1980831691505092915050565b6000613b0c8383613ae2565b9150826002028217905092915050565b613b2582612763565b67ffffffffffffffff811115613b3e57613b3d612b6f565b5b613b488254612e76565b613b53828285613a8f565b600060209050601f831160018114613b865760008415613b74578287015190505b613b7e8582613b00565b865550613be6565b601f198416613b9486613970565b60005b82811015613bbc57848901518255600182019150602085019450602081019050613b97565b86831015613bd95784890151613bd5601f891682613ae2565b8355505b6001600288020188555050505b505050505050565b600081519050919050565b600082825260208201905092915050565b6000613c1582613bee565b613c1f8185613bf9565b9350613c2f81856020860161277f565b613c38816127a9565b840191505092915050565b6000608082019050613c5860008301876128aa565b613c6560208301866128aa565b613c726040830185612940565b8181036060830152613c848184613c0a565b905095945050505050565b600081519050613c9e816126d4565b92915050565b600060208284031215613cba57613cb961269e565b5b6000613cc884828501613c8f565b9150509291505056fea2646970667358221220b6b41cc4b08600179285a53024809ea75e9766dd72d68c61cfba99546782ebf664736f6c63430008130033",
  "linkReferences": {},
  "deployedLinkReferences": {}
}